:020000040800F2
:1000000048080020C13400083D0F00083F0F0008D9
:10001000430F0008470F00084B0F000800000000C6
:100020000000000000000000000000004F0F00086A
:10003000510F000800000000530F0008550F000882
:10004000DB340008DB340008DB340008DB34000854
:10005000DB340008DB340008DB340008DB34000844
:10006000DB340008DB340008DB340008DB34000834
:10007000DB340008DB340008DB340008DB34000824
:10008000DB340008DB340008DB340008DB34000814
:10009000DB340008DB340008DB340008DB34000804
:1000A000DB340008DB340008DB340008DB340008F4
:1000B000DB340008DB340008DB340008DB340008E4
:1000C000DB340008DB340008DB340008DB340008D4
:1000D000DB3400083534000823130008DB34000843
:1000E000DB340008DB340008DB340008DB340008B4
:1000F000DB340008DB340008DB340008DB340008A4
:10010000DB340008DB340008DB340008DB34000893
:10011000DB340008DB340008DB340008DB34000883
:10012000DB340008DB340008DB340008DB34000873
:1001300000F002F800F094F80AA090E8000C824465
:100140008344AAF10107DA4501D100F089F8AFF242
:10015000090EBAE80F0013F0010F18BFFB1A43F0A5
:10016000010318472C9900004C990000103A24BF55
:1001700078C878C1FAD8520724BF30C830C144BF0C
:1001800004680C607047000000230024002500264E
:10019000103A28BF78C1FBD8520728BF30C148BFEA
:1001A0000B6070476E2905F0D185702905F04387F3
:1001B000662907F04687652907F04387672907F016
:1001C00040876129AFF3008003681B0A28BF41F014
:1001D0008001692905F0B682642905F0B38275298A
:1001E00005F0B0826F2905F0D086782905F00F87D9
:1001F000E92905F06B86E42905F06886F52905F004
:100200006586EF2905F0CD86F82905F00E8703688D
:10021000DB0928BF41F08001632905F0DA857329E5
:1002200005F0DF85E32906F0FF81F32906F004825B
:10023000002070471FB59DE8030005F0BFFC06F0E5
:100240009FFA04000020002106F0D2FF401C6060ED
:100250000020002106F0E2FFE0601FBD10B510BDD8
:1002600006F068FA1146FFF7E5FF00F070FD06F0B2
:100270004BFB03B4FFF7F2FF03BC03F07DF8000073
:100280002DE9F05F02F002FD0123FC4A0021B420B9
:1002900002F094FC0123FA4AE021B42002F08EFC23
:1002A0000823F84A0221B42002F088FC0123F64A10
:1002B0002021B42002F082FC02F0EEFCF1484178EB
:1002C000007801EB0020F1490880EE48C178807881
:1002D00001EB0020ED4948800020EB490870012126
:1002E00002F0B5FA834607F057FD824607F0E4FBBB
:1002F0000646E74AE74B07F04FF804460022E64B74
:1003000007F0E4FA804607F09FF9E449887302F0A9
:1003100023FAE2490C31481C02F0B1FEDB4908889F
:1003200007F03AFD0546DE4907F054FC044607F0A5
:1003300013FDDA494881DB4800880880BDE8F09F5A
:100340001920D649488228208882FA20C882400095
:1003500008837047D448007820B101282ED00228A5
:1003600073D14EE0CD48407BCC49498A884203DDB9
:100370000120CE49086002E00020CC490860C7484F
:10038000807BC649898A884204DA0120C749091D51
:10039000086003E00020C549091D0860BF480088C7
:1003A000BE49098B884204DA0120C049303908600F
:1003B00003E00020BD493039086047E0BC480078C0
:1003C00018B10120B949086002E00020B74908606F
:1003D000B848007820B10120B449091D086003E045
:1003E0000020B249091D0860B348007820B10120FF
:1003F000AE493039086003E00020AC49303908606C
:1004000024E0AE48007818B10120A849086002E055
:100410000020A6490860AA48007820B10120A3491D
:10042000091D086003E00020A049091D0860A548D7
:10043000007820B101209D493039086003E0002098
:100440009A493039086001E0FFE700BF00BF9348D8
:1004500040899249C98A884204DD01209349091FD5
:10046000086003E000209149091F0860704708B543
:100470009548007848B195A04FF6FF73002290216F
:1004800000903C2004F0FAFB08E092A04FF6FF73C6
:100490000022902100903C2004F0F0FB8A48007874
:1004A00040B18EA04FF6FF730022502100903C20F7
:1004B00004F0E4FB8AA04FF6FF7300225021009065
:1004C0003C2004F0DBFB7B48007840B183A04FF672
:1004D000FF730022602100903C2004F0CFFB80A03D
:1004E0004FF6FF730022602100903C2004F0C6FB11
:1004F0007148007840B179A04FF6FF730022702157
:1005000000903C2004F0BAFB75A04FF6FF73002268
:10051000702100903C2004F0B1FB6548007840B1A8
:100520006EA04FF6FF730022802100903C2004F063
:10053000A5FB6BA04FF6FF730022802100903C20AA
:1005400004F09CFB08BD08B566A04FF6FF730022BF
:1005500011460090104604F091FB66A04FF6FF7321
:10056000002210210090104604F088FB65A04FF691
:10057000FF73002220210090104604F07FFB65A04D
:100580004FF6FF73002230210090104604F076FBF6
:1005900065A04FF6FF73002240210090104604F042
:1005A0006DFB65A04FF6FF730022902100900A209A
:1005B00004F064FB4448007848B161A04FF6FF7333
:1005C0000022902100903C2004F058FB08E05EA03F
:1005D0004FF6FF730022902100903C2004F04EFB68
:1005E00008BD08B55AA04FF6FF7300221E210090E7
:1005F0000A2004F043FB56A04FF6FF7300222E2181
:1006000000900A2004F03AFB54A04FF6FF7300223A
:100610003E2100900A2004F031FB54A04FF6FF73F6
:100620000022582100900A2004F028FB52A04FF627
:10063000FF730022662100900A2004F01FFB08BD12
:1006400008B51948007820B1012815D0022814D126
:10065000CAE04DA04FF6FF731F22802100900020BA
:1006600004F00CFB4AA04FF6FF730022802100909B
:100670002D2004F003FB8FE098E0D3E00B00002076
:100680000C0000206C000020780000200E000020EC
:100690007B14AE47E17A444000005940020100203B
:1006A00000002041440000201C000020B4812142B1
:1006B00001000020000000200200002004000020B3
:1006C000030000200500002007000020D2D1C1ACAB
:1006D000BDD30000CEB4C1ACBDD30000BFAA0000A2
:1006E000B9D80000BFD5C6F8CEC2B6C83A2020207F
:1006F00020A1E600BFD5C6F8CAAAB6C83A20202075
:1007000020250000CDC1C8C0CAAAB6C83A20202002
:1007100020250000B9E2D5D5C7BFB6C83A202020B1
:10072000206C757800000000B6FED1F5BBAFCCBCE4
:100730003A20202020A1EB00574946493A0000000A
:10074000D2D1C1ACBDD33A00CEB4C1ACBDD33A0016
:10075000CEC2B6C8E3D0D6B53A000000CDC1C8C0FD
:10076000CAAAB6C8E3D0D6B53A000000B9E2D5D5DA
:10077000E3D0D6B53A000000B6FED1F5BBAFCCBC95
:10078000E3D0D6B53A000000D7D4B6AF00000000E1
:10079000CAD6B6AF00000000FEA04FF6FF730022DD
:1007A000802100905A2004F069FA3BE0AFF2280063
:1007B0004FF6FF73002280210090104604F05EFA8D
:1007C000AFF234004FF6FF731F22802100902D20DE
:1007D00004F054FAEFA04FF6FF730022802100903E
:1007E0005A2004F04BFA1DE0AFF264004FF6FF739D
:1007F000002280210090104604F040FAAFF2700011
:100800004FF6FF730022802100902D2004F036FA6D
:10081000E0A04FF6FF731F22802100905A2004F0C1
:100820002DFA00BF00BF08BD1CB5DC480078DC49CC
:100830000978884205D0FFF786FED9480078D74965
:1008400008704FF6FF700021CDE90010D548427BBB
:100850000223462004F01BFC4FF6FF700021CDE977
:100860000010D048027B02231021462004F00FFC28
:100870004FF6FF700021CDE90010CA48827B0223A9
:100880002021462004F003FC4FF6FF700021CDE943
:100890000010C448028804233021462004F0F7FBEE
:1008A0004FF6FF700021CDE90010BE4842890223B7
:1008B0004021462004F0EBFB1CBD1CB5B748007876
:1008C000B7490978884232D0B7A04FF6FF730022AB
:1008D00011460090282004F0D1F9AFF28C104FF6A9
:1008E000FF730022102100900A2004F0C7F9B1A084
:1008F0004FF6FF730022202100900A2004F0BEF979
:10090000AFF298104FF6FF730022302100900A20BA
:1009100004F0B4F9AAA04FF6FF7300224021009022
:100920000A2004F0ABF99E4800789C490870A7A003
:100930000090A748007801014FF6FF73002210468F
:1009400004F09CF94FF6FF700021CDE900109548A6
:10095000428A02231021502004F099FB4FF6FF70C9
:100960000021CDE900108F48828A022320215020E7
:1009700004F08DFB4FF6FF700021CDE9001089488F
:10098000028B04233021502004F081FB4FF6FF70CE
:100990000021CDE900108348C28A03234021502062
:1009A00004F075FB1CBD08B57C4800787C490978CB
:1009B000884227D087A04FF6FF730022114600908F
:1009C000282004F05BF986A04FF6FF730022102167
:1009D0000090142004F052F983A04FF6FF73002218
:1009E00020210090142004F049F981A04FF6FF73F4
:1009F000002230210090142004F040F9684800786B
:100A00006649087071A000907B48007801014FF69C
:100A1000FF730022104604F031F97848007850B195
:100A2000AFF248304FF6FF730022102100905020A3
:100A300004F024F909E0AFF258304FF6FF730022BA
:100A400010210090502004F019F96D48007850B141
:100A5000AFF278304FF6FF73002220210090502033
:100A600004F00CF909E0AFF288304FF6FF73002272
:100A700020210090502004F001F96248007850B124
:100A8000AFF2A8304FF6FF730022302100905020C3
:100A900004F0F4F809E0AFF2B8304FF6FF7300222B
:100AA00030210090502004F0E9F808BD08B5564800
:100AB000007800286CD03A480078012869D139487C
:100AC000408A3C2802DD1420364948823548008A95
:100AD000502802DD1E20334908823248808A50287F
:100AE00002DD1E202F4988822E48008B41F288317A
:100AF000884203DD4FF47A702A4908832948C08A66
:100B0000B0F5FA7F02DD64202649C8823E480078AD
:100B1000032824D12E480078012806D002280AD0C4
:100B200003280ED0042818D111E01E48408A401C2A
:100B30001C49488212E01B48808A401C194988825F
:100B40000CE01848008B64301649088306E015480D
:100B5000C08A401D1349C88200E000BF00BF2A4878
:100B60000078022856D129A0009019480078010188
:100B70004FF6FF730022104604F080F81448007806
:100B8000401C1349087008460078052842D13FE010
:100B9000C7E03FE0D4C6B6CB000000001D00002037
:100BA0001B00002002010020B2CECAFDC9E8D6C356
:100BB00000000000CDC1CAAAE3D0D6B53A000000BB
:100BC000434F32E3D0D6B53A000000002A000000BF
:100BD00018000020CAD6B6AFBFD8D6C600000000A5
:100BE000B7E7C9C83A000000CBAEB1C33A00000075
:100BF000B5C6B9E23A00000019000020010000204B
:100C00000000002002000020090000202000000059
:100C100001200870B748007802283BD1B648007818
:100C200003281CD1B5480078012804D0022808D038
:100C3000032812D10BE0B2480078C043B0490870D5
:100C40000CE0B0480078C043AE49087006E0AE48FA
:100C50000078C043AC49087000E000BF00BFA64860
:100C60000078022816D1AFF25C000090A34800780B
:100C700001014FF6FF730022104603F0FFFF9F486B
:100C80000078401C9D49087008460078042801D16E
:100C90000120087098480078012830D14FF6FF7085
:100CA00004F075FCAFF270504FF6FF7300229021F4
:100CB00000900A2003F0E2FF9448007850B1AFF2B0
:100CC00080504FF6FF730022902100903C2003F0EB
:100CD000D5FF09E0AFF290504FF6FF73002290214C
:100CE00000903C2003F0CAFF82480078401C8149F4
:100CF000087008460078032801D1002008707E485B
:100D0000007804280AD182480078401C8049087085
:100D100008460078032801D1002008700020764999
:100D200008707448007820B1012805D0022809D144
:100D300005E0FFF779FD06E0FFF7BFFD03E0FFF7F1
:100D400032FE00E000BF00BFFFF77AFC08BD08B527
:100D5000002402F0A7FA00F0EFF94FF4E13001F0BF
:100D6000DFFA4FF4E13002F019FB01F08BFD01F0E6
:100D700070FF642002F0D3FA01F088FF642002F0D3
:100D8000CEFA0123634A2021B42001F017FF022389
:100D9000604A521C2321B42001F010FF02235D4A57
:100DA000D21C2421B42001F009FF01235A4A00215A
:100DB000B42001F003FF5848007800F0100028B17B
:100DC0000023564AF421B42001F0C2FE0123524A06
:100DD0000021B42001F0F2FE0123514A1946B4204B
:100DE00001F0ECFE10220121B42001F084FE01F09C
:100DF00053FF02F0BFF904F06AFA10204949086075
:100E00004FF6FF7004F0C3FB01F0C8FCFFF798FA3F
:100E100002E0C82002F083FA02F084F90028F8D139
:100E200001F008FB40A04FF6FF7300223C21009028
:100E30000A2003F023FF00F016FA03E04FF4FA70E3
:100E400002F06DFA00F0E6FA0028F7D101202F49F0
:100E500008704FF6FF7004F09AFBFFF711FAAFF23B
:100E600028704FF6FF730022902100900A2003F0B3
:100E700005FF2648007850B1AFF23C704FF6FF7383
:100E80000022902100903C2003F0F8FE09E0AFF230
:100E900048704FF6FF730022902100903C2003F031
:100EA000EDFE25E0002002F091F913490870FFF7EC
:100EB000FDFD21480078401C1F490870FFF74AFAE1
:100EC0001D480078142808DD00F0B0FB00F050F950
:100ED000002019490870FFF7D3F9002000F0A1F9AC
:100EE000044614B1204600F0D7FB022002F017FAA6
:100EF000D8E700001B000020090000201900002096
:100F00000100002000000020020000200700002057
:100F10001C000020780000200B00002008000020AA
:100F20000A00002010080140D5FDD4DAC1ACBDD3C1
:100F30004F4E454E4554000017000020704700BF3B
:100F4000FEE700BFFEE700BFFEE700BFFEE7704719
:100F500070477047704700000CB50020019000906A
:100F60006C48006840F480306A49086000BF6948F6
:100F7000006800F4003000900198401C0190009837
:100F800018B90198B0F5A06FF1D16248006800F47B
:100F9000003010B10120009001E000200090009886
:100FA000012843D15C48006840F010005A490860AD
:100FB0000846006820F0070008600846006840F016
:100FC000020008605348406852494860084640683B
:100FD00048600846406840F48060486008464068C1
:100FE00020F47C1048600846406840F4E8104860EF
:100FF0000846006840F08070086000BF45480068FF
:1010000000F000700028F9D04248406820F003004A
:10101000404948600846406840F00200486000BF10
:101020003C48406800F00C000828F9D10CBD10B510
:10103000FFF792FF10BD10B53648006840F0010080
:1010400034490860084640683449084031494860DE
:1010500008460068324908402E4908600846006882
:1010600020F4802008600846406820F4FE004860B4
:101070004FF41F008860FFF7DAFF4FF00060294946
:10108000086010BD10B5002100200022214B5B68D4
:1010900003F00C0121B1042906D0082928D107E06A
:1010A000214B224C236027E01F4B204C236023E080
:1010B000184B5B6803F47010164B5B6803F48032C6
:1010C000022303EB904022B9194B4343174C236092
:1010D0000DE0104B5B6803F4003323B1144B434322
:1010E000124C236003E0104B4343104C236003E099
:1010F0000D4B0E4C236000BF00BF064B5B68C3F373
:1011000003130C4CE15C094B1B68CB40074C23607C
:1011100010BD000000100240002002400000FFF857
:10112000FFFFF6FE08ED00E000127A00200000202C
:1011300000093D002400002008B50121082002F02C
:1011400069FD47F20200ADF8000010208DF80300A1
:1011500003208DF802006946044802F09FFA4FF41C
:10116000E041024802F049FB08BD0000000C0140CC
:1011700010B580217A4804F0B4FC00207949088039
:1011800010BD7848008808B901207047754800886C
:1011900075490988884203D1002072490880F4E724
:1011A00070480088704908800120EEE72DE9F04181
:1011B00004460D46C826204604F023FC87B2394673
:1011C000204601F0FFF80FE0FFF7DBFF48B92946A2
:1011D000634804F0E0FB20B1FFF7CAFF0020BDE840
:1011E000F0810A2002F09BF8301EA6F10101CEB278
:1011F000EAD10120F3E730B589B005460C46FFF788
:10120000B7FF224659A101A804F05CFA5BA101A82E
:10121000FFF7CCFF18B92146284601F0D3F809B0F2
:1012200030BD70B50546002400BFFFF7AAFF80B9A6
:1012300053A14B4804F0AFFB044654B13A21204679
:1012400004F08DFB044614B1641C204670BD0020E0
:10125000FCE7052002F063F8281EA5F101018DB21C
:10126000E3D100BFF2E708B50121042002F0D2FC6F
:1012700010208DF803000220ADF8000003208DF847
:1012800002006946404802F009FA002202213E4865
:1012900002F0B5FA4FF4FA7002F041F8012202218F
:1012A000394802F0ACFA4FF4FA7002F038F8FFF760
:1012B0005FFF03E04FF4FA7002F031F833A134A07D
:1012C000FFF774FF0028F5D103E04FF4FA7002F045
:1012D00026F82EA130A0FFF769FF0028F5D103E022
:1012E0004FF4FA7002F01BF828A12FA0FFF75EFF61
:1012F0000028F5D103E04FF4FA7002F010F82EA1A7
:101300002FA0FFF753FF0028F5D103E04FF4FA7048
:1013100002F005F832A134A0FFF748FF0028F5D10C
:1013200008BD10B540F22551394802F097FEB0B122
:101330000C480088802802D300200A4908803448DD
:10134000001D0088C1B2074802880088401C054B78
:1013500018800348815420212D4802F076FE10BDEC
:1013600082000020340000203600002041542B432E
:10137000495053454E443D25640D0A003E0000008F
:101380004950442C00000000001001404F4B000069
:1013900041540D0A0000000041542B43574D4F4467
:1013A000453D310D0A00000041542B43574448434A
:1013B000503D312C310D0A00474F54204950000058
:1013C00041542B43574A41503D22485541574549C6
:1013D000222C223030303030303030220D0A0000E4
:1013E000434F4E4E4543540041542B4349505354B0
:1013F0004152543D22544350222C223138332E3254
:1014000033302E34302E3339222C3837360D0A0043
:10141000004400407FB500200090019002900390AE
:101420000125BFA3C6A2C9A1D34800F0E1FF6B46C6
:101430002A02BBA1C2A000F0C6FB002858D1019A25
:1014400091B20098FFF7D7FEFA20FFF7EAFE0446B4
:10145000002C49D0204600F0B3FB202844D1204680
:1014600000F0A1FC0A2839D2DFE800F0050B1015C6
:101470001A1F24292E33C1A1BF4800F0B9FF00254F
:1014800031E0C3A1BC4800F0B3FF2CE0C7A1BA48CB
:1014900000F0AEFF27E0CEA1B74800F0A9FF22E0A0
:1014A000D3A1B54800F0A4FF1DE0DAA1B24800F0D6
:1014B0009FFF18E0DEA1B04800F09AFF13E0E4A11E
:1014C000AD4800F095FF0EE0E9A1AB4800F090FFB9
:1014D00009E0F0A1A84800F08BFF04E0F7A1A648BE
:1014E00000F086FF00BF00BF684600F05BFB03E032
:1014F000F9A1A14800F07CFF15B1012004B070BD36
:101500000020FBE71FB504460020009001900290E8
:101510000390FAA1204604F050FA002000900190B8
:1015200002900390F64800780A2870D2DFE800F0B5
:101530006F05111D2935414D5965F248427BF2A1D5
:10154000684604F0BFF8EE480078401CEC4908708B
:101550005DE0EC48027BEFA1684604F0B3F8E84890
:101560000078401CE649087051E0E6480288ECA18A
:10157000684604F0A7F8E2480078401CE04908708B
:1015800045E0E0484289E9A1684604F09BF8DC4860
:101590000078401CDA49087039E0DA48827BE5A11E
:1015A000684604F08FF8D6480078401CD44908708B
:1015B0002DE0E4480278E4A1684604F083F8D048BE
:1015C0000078401CCE49087021E0E3480278E3A18E
:1015D000684604F077F8CA480078401CC84908708B
:1015E00015E0E2480278E2A1684604F06BF8C448CE
:1015F0000078401CC249087009E0E1480278E1A186
:10160000684604F05FF80120BD49087000BF00BFC4
:101610006946204604F014FA2146DDA004F046F89D
:10162000204604F0EEF9C0B204B010BD30B5A5B04C
:1016300000202190229023902490002400258021D6
:1016400001A804F070FA01A8FFF75CFF04460CB390
:1016500021A80523002221460090104600F0DCFB63
:10166000A0B908E001A8415D229A501C229021985F
:101670008154681C05B2A542F4DB229A91B22198EC
:10168000FFF7B9FD21A800F08DFA03E0C3A13A48A5
:1016900000F0AEFE25B030BD2DE9F0418CB006461D
:1016A0000020089009900A900B90079006900590F2
:1016B00004908046002700250024304600F080FA80
:1016C0008046B8F1900F1ED0B8F1A00F26D104A823
:1016D00005AB06AA07A90090304600F03DFD07467D
:1016E00087B908A80090BDF81810DDE90432079802
:1016F00000F09DFD04980090B0A11F48059B079A3B
:1017000000F076FE7DE1F078552808D13079AA28DE
:1017100005D1707908B1B2A065E163E16EE168E1DD
:1017200046344973775A544B7832716D7A6856470C
:10173000736C524967314956304B773D00000000C9
:101740003638393031393439340000004F6E654E47
:1017500065745F4465764C696E6B0D0A4445564965
:10176000443A2025732C20202020204150494B450D
:10177000593A2025730D0A000038014054697073EE
:101780003A09C1ACBDD3B3C9B9A60D0A0000000027
:101790005741524E3A09C1ACBDD3CAA7B0DCA3BA77
:1017A000D0ADD2E9B4EDCEF30D0A00005741524E50
:1017B0003A09C1ACBDD3CAA7B0DCA3BAC9E8B1B875
:1017C0004944BCF8C8A8CAA7B0DC0D0A0000000054
:1017D0005741524E3A09C1ACBDD3CAA7B0DCA3BA37
:1017E000B7FECEF1C6F7CAA7B0DC0D0A00000000B4
:1017F0005741524E3A09C1ACBDD3CAA7B0DCA3BA17
:10180000D3C3BBA74944BCF8C8A8CAA7B0DC0D0A1B
:10181000000000005741524E3A09C1ACBDD3CAA7DF
:10182000B0DCA3BACEB4CADAC8A80D0A0000000022
:101830005741524E3A09C1ACBDD3CAA7B0DCA3BAD6
:10184000CADAC8A8C2EBCEDED0A70D0A000000009D
:101850005741524E3A09C1ACBDD3CAA7B0DCA3BAB6
:10186000BCA4BBEEC2EBCEB4B7D6C5E40D0A0000F3
:101870005741524E3A09C1ACBDD3CAA7B0DCA3BA96
:10188000B8C3C9E8B1B8D2D1B1BBBCA4BBEE0D0A94
:10189000000000005741524E3A09C1ACBDD3CAA75F
:1018A000B0DCA3BAD6D8B8B4B7A2CBCDC1ACBDD347
:1018B000C7EBC7F3B0FC0D0A000000004552523AD6
:1018C00009C1ACBDD3CAA7B0DCA3BACEB4D6AAB402
:1018D000EDCEF30D0A0000005741524E3A0945443F
:1018E000505F5061636B6574436F6E6E6563742007
:1018F0004661696C65640D0A000000002C3B000025
:1019000038000020020100204149525F54454D2C0F
:1019100025643B004149525F48554D2C25643B00EE
:101920004C494748542C25643B0000004341522C4D
:1019300025643B00534F494C5F48554D2C25643B73
:10194000000000000300002057617465725F464C80
:1019500041472C25643B00000400002046414E5FB7
:10196000464C41472C25643B000000000500002048
:101970004C45445F464C41472C25643B0000000029
:101980001C000020434F4E54524F4C2C25643B000A
:101990000D0A30303A25730D0A0000005741524EAF
:1019A0003A094544505F4E65774275666665722018
:1019B0004661696C65640D0A00000000636D64692E
:1019C000643A2025732C207265713A2025732C20EF
:1019D0007265715F6C656E3A2025640D0A00000027
:1019E0004572720043A0024643A1474800F000FD43
:1019F00003E046A1444800F0FBFC02E04FF0FF3753
:101A000000BF00BFFFF7B4FB781C10B90CB0BDE8F5
:101A1000F0813A21059803F0A2FF0546002D54D02D
:101A20006D1C05E015F8012B2046641C01A90A5421
:101A30002878302802DB28783928F3DD002001A936
:101A4000085501A803F07EFF044636A1059803F06F
:101A5000A2FF48B1012C03D102203449087003E0F1
:101A600014B90020314908703048007802282CD180
:101A70002FA1059803F08FFF48B1012C03D101205D
:101A80002C49087003E014B900202A4908702AA1E3
:101A9000059803F080FF48B1012C03D101202849AB
:101AA000087003E014B900202549087025A10598A5
:101AB00003F071FF20B1012C03D1012022490870ED
:101AC00003E014B9002020490870B8F1A00F0ED12E
:101AD0006FB9079803F0A8FD059803F0A5FD099AD2
:101AE00091B20898FFF787FB08A800F05BF800BFE9
:101AF0008CE700004F6B0000546970733A0953651E
:101B00006E642025730D0A0000380140546970731B
:101B10003A094D65737361676520494420457272C7
:101B20000D0A00004F6E656E657400001C000020F9
:101B300046414E00040000205761746572000000A9
:101B4000030000204C4544000500002070B5044609
:101B50000E460025206898B901202073304603F016
:101B600034FD20602068E0B100206060A66003E0E2
:101B70000020216848556D1CA068A842F8D810E0E4
:101B80000220207303E00020216848556D1CA068E6
:101B9000A842F8D800206060A068B04201D20020BE
:101BA000206070BD10B50446207B012802D120685A
:101BB00003F03AFD002020606060A060207310BD3B
:101BC0000146087870472DE9F04780468946174658
:101BD0001C46404603F015FFC5B2484603F011FF0E
:101BE000C6B238212046FFF7B1FF206810B90120A6
:101BF000BDE8F0871020216808706068401C6060B4
:101C000005F10D003044216848706068401C606038
:101C100000202168887003202168C8706068801CDB
:101C200060602168081D0322FEA103F0A2FE606827
:101C3000C01C606001202168C8716068401C606041
:101C40004020216808726068401C6060380A216882
:101C5000487221688F726068801C60600020216873
:101C6000C87221680D736068801C6060216801F192
:101C70000D002A46414603F07CFE606828446060FF
:101C8000002105F10D0022681154401C22681654F1
:101C90006068801C606021680F31481932464946EF
:101CA00003F067FE6068304460600020A0E72DE923
:101CB000F0478046894617461C46404603F0A1FE81
:101CC000C5B2484603F09DFEC6B238212046FFF754
:101CD0003DFF206810B90120BDE8F0871020216881
:101CE00008706068401C606005F10F003044216896
:101CF00048706068401C6060002021688870032084
:101D00002168C8706068801C60602168081D03221B
:101D1000C4A103F02EFE6068C01C60600120216831
:101D2000C8716068401C6060C020216808726068EB
:101D3000401C6060380A2168487221688F726068B0
:101D4000801C606000202168C87221680873606888
:101D5000801C606000202168487321688D73606872
:101D6000801C6060216801F10F002A46414603F0A3
:101D700000FE606828446060002105F10F002268C1
:101D80001154401C226816546068801C60602168F1
:101D9000113148193246494603F0EBFD6068304482
:101DA0006060002098E70146C878704770B5034628
:101DB0000024002500BF01F07F05C90909B145F0E5
:101DC00080051046561CB2B21D54641C09B1052C86
:101DD000F1DB501E80B2024670BDF0B5034601240F
:101DE000002600250020086000BF1046571CBAB22C
:101DF0001D5C05F07F07086807FB04000860E4012C
:101E0000761C042E02D94FF0FF30F0BD05F08000A3
:101E10000028EAD11046F8E72DE9F84F81460D4633
:101E200017461E460A9C00200090484603F0E9FD34
:101E300000F0FF08022E03D117B90120BDE8F88F8A
:101E4000022E09D1384603F0DCFD00F10F0A51469D
:101E50002046FFF77BFE04E005F118012046FFF75E
:101E600075FE206808B90220E8E780216268501CEE
:101E7000606020688154B9F1000F3ED0022E06D177
:101E8000384603F0BEFD0C302844009003E005F115
:101E9000080040440090A1888AB220680099FFF7AA
:101EA00085FF616808446060C0216268501C606002
:101EB0002068815400216268501C60602068815451
:101EC0006168481C6060206800F80180D4E9001255
:101ED00088184246494603F04CFD60684044606003
:101EE00055216268501C606020688154AA21626894
:101EF000501C60602068815425E0022E06D13846CF
:101F000003F07FFD0A302844009001E0A81D0090F6
:101F1000A1888AB220680099FFF748FF61680844E9
:101F2000606040216268501C6060206881545521C7
:101F30006268501C606020688154AA216268501C4D
:101F40006060206881546168481C60602068465465
:101F5000022E3AD1384603F054FD00F0FF0A4FF04C
:101F6000000B00216268501C606020688154616829
:101F7000481C6060206800F801A00AE017F80B1008
:101F80006268501C6060206881540BF1010000F011
:101F9000FF0BD345F2DB290E6268501C606020689D
:101FA0008154C5F307416268501C60602068815409
:101FB000C5F307216268501C606020688154626824
:101FC000501C6060206885540BE0C5F307216268EF
:101FD000501C6060206881546268501C60602068FA
:101FE000855400202AE72DE9F05F0746884616460B
:101FF0001C46384603F005FD801C00EB060A3846F7
:1020000003F0FFFC00F0FF090025384603F0F9FC5F
:10201000401D30441FFA80FB1FB1B8F1000F00D003
:102020002EB901E0454450000120BDE8F09F59461B
:102030002046FFF78BFD206808B90220F5E7302124
:102040006268501C606020688154A1888AB2514641
:102050002068FFF7ABFE6168084460600021626899
:10206000501C6060206881546268501C6060206869
:1020700000F8029007E0795D6268501C606020689B
:102080008154681C85B24D45F5DB002508E018F841
:1020900005106268501C606020688154681C85B21D
:1020A000B542F4D30020C0E72DE9F84305460E46BB
:1020B0001746994600240020009080462046641C64
:1020C000285C302802D00120BDE8F883A2B269461E
:1020D0002846FFF782FE0446601C08B90220F3E799
:1020E000601C285C295D40EA0128A41C08F101005D
:1020F00003F06BFA3060306808B90320E4E708F1B8
:102100000101306803F0EDFC29194246306803F004
:10211000A3FC444408F102000099081A00900098BA
:10212000401C03F052FA3860386820B9306803F078
:102130007BFA0420C8E738680099491C03F0D1FCF9
:1021400029193868009A03F087FC00980444009825
:10215000C9F800000020B7E72DE9F84305460E4610
:1021600017469846DDF82090002000900024204675
:10217000641C285CA02802D00120BDE8F883A2B22C
:1021800069462846FFF729FE0446601C08B902206C
:10219000F3E7601C285C295D40EA01203880A41C1C
:1021A0003988481C03F011FA3060306808B9032000
:1021B000E3E73A88511C306803F093FC3A88291908
:1021C000306803F049FC38880444285D0106601C2F
:1021D000285C41EA0041A01C285C41EA0020E11C87
:1021E000695C0843C9F80000241DD9F80010481C98
:1021F00003F0EBF9C8F80000D8F8000020B9306807
:1022000003F012FA0420B8E7D9F80020511CD8F8DE
:10221000000003F066FC2919D9F80020D8F8000066
:1022200003F01AFCD9F8000004440020A5E72DE9CA
:10223000F04780460E4691461D46089C70190DB128
:10224000062100E002214718791D2046FFF77EFC99
:10225000206810B90120BDE8F087B0216268501CE9
:10226000606020688154A1888AB239462068FFF7EF
:102270009DFD61680844606031126268501C6060B6
:10228000206881546268501C606020688654D4E9DC
:10229000001288183246414603F0DEFB6068304485
:1022A000606015B3290E6268501C6060206881541C
:1022B000C5F307416268501C606020688154C5F313
:1022C00007216268501C6060206881546268501C5D
:1022D000606020688554D4E9001288182A4649466F
:1022E00003F0BAFB6068284460600020B3E710B5D3
:1022F000044602212046FFF729FC206808B9012086
:1023000010BDC0216268501C6060206881540021AB
:102310006268501C6060206881540020F0E7000073
:1023200010B586B004460121042001F073FC0121A0
:10233000480401F07CFC18208DF817000420ADF84B
:10234000140003208DF8160005A9384801F0A6F9FD
:1023500004208DF817000820ADF8140003208DF834
:10236000160005A9314801F099F901940020ADF853
:1023700010000C20ADF80E000020ADF80C00ADF8F8
:102380000A00ADF8080001A9294801F0EAFC012182
:10239000274801F072FD012240F22551244801F046
:1023A00078FD26208DF8000001208DF80300002024
:1023B0008DF8010001208DF80200684601F0A5F8B3
:1023C00006B010BD70B504460D4600260DE014F8A9
:1023D000011B174801F0BEFD00BF4021144801F069
:1023E00027FE0028F9D0701C86B2AE42EFDB70BD2C
:1023F0000FB430B5CBB0054601AC50A800904FF4F7
:10240000947101A8009B4F9A03F036F900200090C8
:1024100004E014F8011B284601F09CFD20780028F8
:10242000F7D14BB030BC5DF814FB00000008014050
:102430000044004008B50121082001F0EBFB4FF4F7
:102440004070ADF8000010208DF8030003208DF8D7
:1024500002006946CC4801F021F94FF44071CA48A6
:1024600001F0C9F908BD10B5C748001D006820F08B
:102470000F00C549091D08600846006840F00300C8
:1024800008600020C1490860022000F024FF0120FC
:10249000BF49C1F8A401052000F01DFF0120BB4980
:1024A0000860042000F017FF10BD70B50546B6485F
:1024B000001D006820F00F00B349091D08600846A0
:1024C000006840F00300086000241EE005FA04F0F4
:1024D00000F0800018B10120AC49086002E0002043
:1024E000AA490860022000F0F6FE0120A749091D54
:1024F0000860042000F0EFFE0020A549C1F8A40107
:10250000022000F0E8FE601CC4B2082CDEDB0020D4
:102510009E49091D0860022000F0DDFE70BD10B567
:102520009948001D006820F00F009749091D0860B8
:102530000846006840F003000860012093490860E5
:10254000022000F0C8FE01209149C1F8A401052035
:1025500000F0C1FE00208D490860042000F0BBFEA1
:1025600000208B49C1F8A401022000F0B4FE10BD88
:1025700010B50446FFF7D3FF4620FFF796FF20462D
:10258000FFF793FFFFF76FFF10BD10B50446002063
:102590007E49091D08607C48001D006820F00F007E
:1025A0007949091D08600846006840F0030008608A
:1025B0007748C0F8A041022000F08DFE0120734949
:1025C000091D0860042000F086FE00207049C1F853
:1025D000A401022000F07FFE10BD70B50546002466
:1025E0006948001D006820F00F006749091D086058
:1025F0000846006840F00800086000261AE0002045
:102600006249091D0860052000F065FE012060494F
:10261000C1F8A401022000F05EFE6006040E5B48D3
:102620008038006808B1601CC4B2022000F053FE7C
:10263000701CC6B2082EE2DB1DB90120FFF7A5FF12
:1026400002E00020FFF7A1FF204670BD10B5002476
:102650004D48001D006820F00F004B49091D08601F
:102660000846006840F008000860012047490860FB
:10267000022000F030FE01204549C1F8A4010220EB
:1026800000F029FE07E0601CC4B2FA2C03DBFFF760
:10269000EAFE012010BD3D48803800680028F2D1D4
:1026A0003A49091D086000BFF4E710B5FFF737FF8E
:1026B0004620FFF7FAFEFFF7C9FF1020FFF7F5FEEF
:1026C000FFF7C4FFFFF7CFFEC82000F028FEFFF79A
:1026D00026FF4720FFF7E9FEFFF7B8FF0120FFF7CD
:1026E0007CFF2C4908700020FFF777FF29494870CC
:1026F000FFF7B9FE10BD10B50120FFF739FF10201C
:10270000FFF736FFC82000F00AFEFFF7CEFFFFF705
:1027100006FF4620FFF7C9FEFFF798FF2020FFF7CE
:10272000C4FEFFF793FFFFF79EFEC82000F0F7FD01
:10273000FFF7F5FE4720FFF7B8FEFFF787FF012000
:10274000FFF74BFF134908700020FFF746FF1149C0
:102750004870FFF788FE10BD10B50120FFF708FF95
:102760001020FFF705FF0A2000F0D9FDFFF79DFFBD
:10277000084800780849086006484078096800EB76
:1027800001200549086010BD000C0140A0812142D4
:10279000008021423C0000204400002000B587B0AA
:1027A00001214FF4027001F035FA4FF4004001F0BE
:1027B00095F90120ADF8040000208DF8070001A96B
:1027C0002E4800F06BFF2E4801F08CFC0020029098
:1027D0008DF80C008DF80D004FF46020049000205F
:1027E000059001208DF8180002A9254801F0A1FCF0
:1027F0000121234801F0C9FC214801F0E8FC00BF99
:102800001F4801F0E9FC0028FAD11D4801F0EEFC58
:1028100000BF1B4801F0EFFC0028FAD107B000BD53
:1028200010B50446072301222146154801F019FD81
:102830000121134801F0E9FC00BF0221104801F01A
:1028400055FE0028F9D00E4801F072FD10BD2DE9AB
:10285000F04107460C460025002608E03846FFF701
:10286000DFFF0544052000F05AFD701CC6B2A642E9
:10287000F4DBB5FBF4F080B2BDE8F0810008014064
:102880000024014008B50121082001F0C3F9C0204F
:10289000ADF8000010208DF8030003208DF8020031
:1028A0006946F74800F0FAFE0120F6490860F6494B
:1028B000C1F89C0108BD10B50446322000F00BFDA4
:1028C00010BD10B5EE48006820F07040EC4908607B
:1028D0000846006840F0405008600120E949091DA1
:1028E00008600520FFF7E7FF0120E749C1F89801DC
:1028F0000520FFF7E0FF0020E249091D08600520E0
:10290000FFF7D9FF0020E049C1F898010520FFF743
:10291000D2FF012010BD10B5D948006820F07040EA
:10292000D74908600846006840F040500860002021
:10293000D449091D0860D449C1F898010520FFF762
:10294000BAFF0120CF4908600520FFF7B4FF01203E
:10295000CD49C1F89C0110BD10B50446C8480068B7
:1029600020F07040C64908600846006840F04050BA
:102970000860012C04D10120C249091D086003E050
:102980000020C049091D08600120BE4908600520DB
:10299000FFF791FF0020BC49C1F898010520FFF71F
:1029A0008AFF10BD10B50024B548006820F07040C3
:1029B000B34908600846006840F000400860012004
:1029C000B049091D086000F086FC0120AE49C1F83D
:1029D000980100F080FC05E0601C84B2B4F5FA7F39
:1029E00000D104E0A7487C3800680028F4D100BF7B
:1029F000A4487C38006818B10020A249086010BDC6
:102A00000520FFF758FF00209E4908600520FFF7CA
:102A100052FF9B48006820F07040994908600846C2
:102A2000006840F0405008600120E8E770B50446B7
:102A30009348006820F0704091490860084600689B
:102A400040F04050086000208E49086000251CE0DE
:102A500004F0800020B101208A49091D086003E0CC
:102A600000208849091D086001208649086005206A
:102A7000FFF721FF00208449C1F898010520FFF7E6
:102A80001AFF6006040E681CC5B2082DE0DB0A20A0
:102A9000FFF711FF70BD70B500247948006820F081
:102AA0007040774908600846006840F000400860C0
:102AB00001207449091D08600520FFF7FCFE002570
:102AC00015E06006040E01206E4908606E48D0F8DB
:102AD0001C0108B144F001040520FFF7ECFE0020C2
:102AE000684908600520FFF7E6FE681CC5B2082D9E
:102AF000E7DB204670BD70B506460C461546FFF76D
:102B0000E0FE18B9FFF707FF002070BD3046FFF761
:102B10008DFFFFF747FF18B9FFF7FDFE0020F4E730
:102B20002046FFF783FFFFF73DFF18B9FFF7F3FEDD
:102B30000020EAE72846FFF779FFFFF733FF18B9CF
:102B4000FFF7E9FE0020E0E7FFF7E5FE0120DCE704
:102B50002DE9F04107460E4614461D46FFF7B1FE2B
:102B600020B9FFF7D8FE0020BDE8F0813846FFF716
:102B70005DFFFFF717FF18B9FFF7CDFE0020F3E761
:102B80003046FFF753FFFFF70DFF18B9FFF7C3FEFD
:102B90000020E9E70CE014F8010BFFF747FFFFF70F
:102BA00001FF18B9FFF7B7FE0020DDE7681EC5B2C8
:102BB000002DF0D1FFF7AFFE0120D5E72DE9F04160
:102BC00006460F4614461D46FFF77BFE20B9FFF769
:102BD000A2FE0020BDE8F0813046FFF727FFFFF797
:102BE000E1FE18B9FFF797FE0020F3E73846FFF73C
:102BF0001DFFFFF7D7FE18B9FFF78DFE0020E9E7AC
:102C0000FFF75FFE18B9FFF786FE0020E2E7711CB0
:102C1000C8B2FFF70BFFFFF7C5FE18B9FFF77BFE41
:102C20000020D7E708E0FFF736FF04F8010B00208B
:102C3000FFF792FE681EC5B2681E0028F3D1FFF7A9
:102C40002AFF20700120FFF787FEFFF764FE0120B6
:102C5000C0E708B50121082000F0DCFF2020ADF816
:102C6000000010208DF8030003208DF80200694653
:102C7000034800F013FD2021014800F0BEFD08BD0F
:102C8000000C0140988121420080214210B5202192
:102C9000B54800F0B2FD10BD10B52021B24800F0DB
:102CA000AAFD10BD70B506460C461546FFF709FE95
:102CB00018B9FFF730FE002070BD8020FFF7B6FE88
:102CC000FFF770FE18B9FFF726FE0020F4E7304644
:102CD000FFF7ACFEFFF766FE18B9FFF71CFE0020F9
:102CE000EAE70AE02078FFF7A1FEFFF75BFE18B9DC
:102CF000FFF711FE0020DFE7641C281EA5F101018B
:102D0000CDB2EFD1FFF707FE0120D5E708B580204F
:102D10008DF8000000208DF801000222694610465F
:102D2000FFF7C0FF142000F0FAFA08BD38B5002400
:102D300044F4805420128DF80000E0B28DF80100B8
:102D4000022269461046FFF7ADFF38BD10B5FFF708
:102D5000DDFFFFF7EBFF10BD70B506460C461546CC
:102D6000FFF7AFFD18B9FFF7D6FD002070BD80203A
:102D7000FFF75CFEFFF716FE18B9FFF7CCFD002049
:102D8000F4E73046FFF752FEFFF70CFE18B9FFF7E5
:102D9000C2FD0020EAE7FFF7BEFD012000F0BFFA08
:102DA000FFF78FFD0A2000F0BAFA8120FFF73EFE00
:102DB000FFF7F8FD18B9FFF7AEFD0020D6E70BE0EE
:102DC000FFF769FE2070641C1DB90120FFF7C4FDE8
:102DD00002E00020FFF7C0FD281EA5F10101CDB2E1
:102DE000EED1FFF798FD0120C0E770B506460C460E
:102DF0001546FFF766FD18B9FFF78DFD002070BD81
:102E00008020FFF713FEFFF7CDFD18B9FFF783FD14
:102E10000020F4E70020FFF709FEFFF7C3FD18B913
:102E2000FFF779FD0020EAE7FFF775FD0A2000F0C3
:102E300076FAFFF746FD18B9FFF76DFD0020DEE7D3
:102E40000A2000F06CFA8120FFF7F0FDFFF7AAFDE1
:102E500018B9FFF760FD0020D1E70BE0FFF71BFE7C
:102E60002070641C1DB90120FFF776FD02E00020F0
:102E7000FFF772FD281EA5F10101CDB2EED1FFF7DB
:102E80004AFD0120BBE72DE9FE4F022202A90020E6
:102E9000FFF7ABFF9DF809109DF8082041EA0220DA
:102EA00004F0FFFB80460022304B04F075FA064622
:102EB00000222F4B04F00CFC044600222D4B04F0A2
:102EC00011FD824600222C4B04F002FCCDE90001EA
:102ED00004F0BAFB80B2BDE8FE8F2DE9F843022270
:102EE00069460120FFF781FF9DF801109DF8002041
:102EF00041EA022004F0D5FB064600221B4B04F0F9
:102F00004BFA044600221D4B04F0E2FB804604F01D
:102F10009BFB80B2BDE8F88308B5022269461046E3
:102F2000FFF71AFF9DF801009DF8001040EA01200C
:102F300008BD08B502226946FE20FFF70DFF9DF887
:102F400001009DF8001040EA012008BD08B50222EA
:102F50006946FF20FFF700FF9DF801009DF8001073
:102F600040EA012008BD0000000C01400000F040D4
:102F700000A0644000004440000059400088C34065
:102F800010B57848006820F470407649086008461B
:102F9000006840F440500860002073490860142025
:102FA00000F0BDF901207149C1F8AC011E2000F00C
:102FB00092F910BD10B500246A48006820F47040F2
:102FC000684908600846006840F40040086004E072
:102FD000601CC4B2012000F07EF9634880380068AC
:102FE00008B1642CF4DB642C01DB012010BD00244B
:102FF00004E0601CC4B2012000F06DF95A4880382A
:10300000006808B9642CF4DB642C01DB0120EDE7D7
:103010000020EBE710B5002404E0601CC4B20120DE
:1030200000F059F950488038006808B1642CF4DB8E
:10303000002404E0601CC4B2012000F04CF94A48AE
:103040008038006808B9642CF4DB282000F043F9CC
:1030500045488038006808B1012010BD0020FCE719
:1030600070B50024002506E06006040EFFF7D2FFCD
:103070000443681CC5B2082DF6DB204670BD2DE95F
:10308000FC4705460E46FFF77BFFFFF793FF00283E
:1030900043D1002405E0FFF7E3FF0DF80400601CB6
:1030A000C4B2052CF7DB9DF800009DF80110084420
:1030B0009DF8021008449DF8031008449DF8041080
:1030C00088422DD19DF8010004F066FE8246284911
:1030D00004F080FD80469DF8000004F05DFE81460E
:1030E000414604F015FD074604F036FE30709DF8A9
:1030F000030004F051FE82461D4904F06BFD80463A
:103100009DF8020004F048FE8146414604F000FDAF
:10311000074604F021FE287002E00120BDE8FC878C
:103120000020FBE708B50121042000F073FD4FF4F7
:103130000060ADF8000010208DF8030003208DF82A
:10314000020069460748001F00F0A8FA4FF400612A
:103150000448001F00F04FFBFFF712FFFFF72AFFA4
:1031600008BD000004080140AC01214200002142DA
:103170000000C84208B50121042000F04BFD0121E8
:10318000112000F047FD4FF48850ADF800004820B2
:103190008DF803006946404800F080FA012001F0F4
:1031A00036FA002000F0A3FC002001F0CEF94FF425
:1031B0004040ADF8000048208DF8030069463748CC
:1031C00000F06CFA002001F022FA08BD10B50446A8
:1031D00014B10120324908703148007800283DD0F0
:1031E0004FF400412D4800F0ECFA88B14FF48071A3
:1031F000294800F0E6FA58B14FF48051264800F013
:10320000E0FA28B14FF48041244800F0DAFA28BBF4
:10321000052000F084F80020214908704FF48071E7
:103220001D4800F0CEFA08B9012010BD4FF48051BE
:10323000194800F0C6FA08B90220F6E74FF4004139
:10324000164800F0BEFA08B90320EEE74FF48041BB
:10325000124800F0B6FAE0B90420E6E74FF48071B6
:103260000D4800F0AEFA012813D1C1030B4800F05D
:10327000A8FA01280DD10103074800F0A2FA01289D
:1032800007D18103054800F09CFA012801D10449C7
:1032900008700020C9E7000000080140001001404C
:1032A0004800002010B56FF0040000F078F92E48B7
:1032B00000682E49B0FBF1F02D49087008460078EF
:1032C00000EB4001C1EBC0104FF6FF7101EAC000F6
:1032D0002849088010BD0146254A12784A434FF01C
:1032E000E0235A6100229A611A46126942F00102F3
:1032F0001A6100BF4FF0E022106900F001021AB11C
:1033000000F48032002AF5D04FF0E022126922F05A
:1033100001024FF0E0231A6100229A6170470146D2
:10332000144A12884A434FF0E0235A6100229A61FE
:103330001A46126942F001021A6100BF4FF0E02202
:10334000106900F001021AB100F48032002AF5D0B1
:103350004FF0E022126922F001024FF0E0231A61DF
:1033600000229A61704700002000002000127A00BD
:103370004A0000204C000020014600BF7047014673
:1033800000BF704700BF4A4A128802F04002002A7C
:10339000F9D0C2B2464B1B1D1A80704710B586B0DB
:1033A0000446012144F2040000F034FC4FF40070A4
:1033B000ADF8140003208DF8160018208DF81700C2
:1033C00005A93C4800F06AF94FF48060ADF814009C
:1033D00004208DF8170005A9364800F05FF9252074
:1033E0008DF8000003208DF801008DF80200012007
:1033F0008DF80300684600F088F801940020ADF8CD
:103400000800ADF80A00ADF80C00ADF810000C2073
:10341000ADF80E0001A9264800F0A3FC012240F2FD
:103420002551234800F035FD0121214800F025FDFC
:1034300006B010BD10B540F225511D4800F00EFE3B
:1034400010B31B4800F08AFDC4B21B48008800F48A
:103450000040C8B91848008800F4804060B10A2CC8
:1034600003D000201449088020E01348008840F46D
:1034700000401149088019E00D2C06D10E48008843
:1034800040F480400C49088010E00B480088C0F3ED
:103490000D000A490C5408480088401C0649088061
:1034A00008460088C72801DD0020088010BD000004
:1034B0000038014000080140540000201C01002099
:1034C0000948804709480047FEE7FEE7FEE7FEE7B8
:1034D000FEE7FEE7FEE7FEE7FEE7FEE704480549F4
:1034E000054A064B704700003710000831010008FC
:1034F000480200204808002048040020480400201A
:1035000031490143314A1160704770B500210023F1
:103510000F22C47804B32D4C246804F4E064C4F58D
:10352000E064210AC1F10403CA40447804FA03F1BB
:103530008478144021430901254C0678A15504786C
:1035400004F01F050124AC4005786D11AD0005F1B4
:10355000E025C5F8004109E0047804F01F050124C6
:10356000AC401C4D0678761145F8264070BD1A4ACD
:103570000A400243154B1B1F1A60704739B1134AAA
:10358000121D12680243114B1B1D1A6006E00F4A00
:10359000121D126882430D4B1B1D1A6070470428D0
:1035A00008D14FF0E021096941F004014FF0E02219
:1035B000116107E04FF0E021096921F004014FF0AB
:1035C000E0221161704700000000FA050CED00E0F8
:1035D00000E400E080E100E080FFFF1F10B504463A
:1035E000CC48844208D10121042000F02DFB0021A9
:1035F000042000F029FB46E0C748844208D101219D
:10360000082000F021FB0021082000F01DFB3AE01B
:10361000C248844208D10121102000F015FB00218E
:10362000102000F011FB2EE0BD48844208D101219A
:10363000202000F009FB0021202000F005FB22E003
:10364000B848844208D10121402000F0FDFA002151
:10365000402000F0F9FA16E0B348844208D1012175
:10366000802000F0F1FA0021802000F0EDFA0AE05D
:10367000AE48844207D10121801500F0E5FA00210F
:10368000A01500F0E1FA10BD10B50121084600F0C8
:10369000DBFA0021012000F0D7FA10BD2DE9F0413E
:1036A000024600250026002000230024002791F870
:1036B00003C00CF00F0591F803C00CF0100CBCF126
:1036C000000F03D091F802C04CEA050591F800C044
:1036D000BCF1000F31D0146800202BE04FF0010C3A
:1036E0000CFA00F3B1F800C00CEA03069E4220D1A8
:1036F00083004FF00F0C0CFA03F7BC4305FA03FCF0
:103700004CEA040491F803C0BCF1280F06D14FF035
:10371000010C0CFA00FCC2F814C00AE091F803C0D6
:10372000BCF1480F05D14FF0010C0CFA00FCC2F8B7
:1037300010C0401C0828D1D31460B1F800C0BCF1FF
:10374000FF0F34DD546800202EE000F1080C4FF02C
:10375000010808FA0CF3B1F800C00CEA03069E4217
:1037600021D183004FF00F0C0CFA03F7BC4305FA8C
:1037700003FC4CEA040491F803C0BCF1280F05D106
:1037800000F1080C08FA0CF8C2F8148091F803C094
:10379000BCF1480F07D100F1080C4FF0010808FAFE
:1037A0000CF8C2F81080401C0828CED35460BDE845
:1037B000F0814FF6FF710180022181700421C170F8
:1037C00070470246002093680B400BB1012000E0D7
:1037D000002070470146886880B27047024600208A
:1037E000D3680B400BB1012000E000207047014678
:1037F000C86880B2704701617047416170470AB183
:10380000016100E041617047C16070474FF4803250
:103810000A438261816182618269826970470246DE
:103820000020434B18684FF68073184040EA02109E
:1038300008433F4B186070473E49C8617047F0B578
:103840000A46002300240021002500F00046B6F1BE
:10385000004F02D1364EF16901E0354E7168C0F378
:10386000034583B200F44016B6F5401F08D121F09D
:1038700070612F4E766826F070662D4F7E6012E0E4
:1038800000F48016B6F5801F06D1032606FA05F46B
:10389000A14341F0706106E0460D360103FA06F6D9
:1038A000B14341F0706122B1460D360103FA06F6CC
:1038B000314300F00046B6F1004F02D11C4EF161D9
:1038C00001E01B4E7160F0BD30B500228B071C0F6C
:1038D0000F2303FA04F2164B08338C1053F82430EC
:1038E0009343134C08348D1044F8253023468C1034
:1038F00053F824308C07240F00FA04F423430C4CB3
:1039000008348D1044F8253030BD0A49DC31086098
:103910007047000000080140000C01400010014009
:103920000014014000180140001C0140002001402B
:103930000000014000002042DF48006840F0010024
:10394000DD49086008464068DC490840DA494860BB
:1039500008460068DA490840D74908600846006808
:1039600020F4802008600846406820F4FE0048608B
:103970004FF41F0088607047CF49096821F48031F7
:10398000CD4A11601146096821F480211160B0F51B
:10399000803F03D0B0F5802F0ED106E0C6490968FC
:1039A00041F48031C44A116007E0C349096841F419
:1039B000A021C14A116000E000BF00BF704710B5F0
:1039C00001460022002300204A11012A02D1BA4CEC
:1039D000236806E0022A02D1B74C236A01E0B64C04
:1039E000636A01F01F02012494401C400CB10120C5
:1039F00000E0002010BD38B5002000900024002514
:103A000000BF3120FFF7DBFF05460098401C009007
:103A10000098B0F5A06F01D0002DF2D03120FFF753
:103A2000CEFF08B1012400E00024204638BD014645
:103A30000020A14A106820F0F80040EAC1001060A0
:103A40007047A04908607047024600209A4B5868AA
:103A500020F47C1042EA01031843974B58607047EA
:103A600098490866704701460020934A506820F044
:103A700003000843506070478F48406800F00C0016
:103A80007047014600208C4A506820F0F00008433F
:103A90005060704701460020874A506820F4E0607B
:103AA00008435060704701460020834A506820F464
:103AB000605040EAC1005060704729B17E4A527A96
:103AC00002437D4B5A7204E07B4A527A82437A4B1E
:103AD0005A7270477B49D831086070470146002010
:103AE000754A506820F440400843506070470021F8
:103AF000714A20321170704A82F82010012802D0D9
:103B000004280AD104E001216B4A2032117005E03B
:103B10000521694A2032117000E000BF00BF7047E4
:103B20006949086070476449096A0143624A116241
:103B30007047654944390860704730B5002100225C
:103B4000002400235C4D6D6805F00C0121B10429AF
:103B500005D0082923D105E05C4D056022E05B4DCE
:103B600005601FE0544D6D6805F47012524D6D688C
:103B700005F48034022505EB92421CB9544D55439F
:103B800005600BE04C4D6D6805F400351DB1504DDE
:103B90005543056002E04D4D5543056002E04B4D35
:103BA000056000BF00BF444D6D6805F0F0010909D4
:103BB000484D6B5C0568DD4045603F4D6D6805F420
:103BC000E061090A434D6B5C4568DD4085603A4D14
:103BD0006D6805F46051C90A3E4D6B5C4568DD4077
:103BE000C560354D6D6805F44041890B3A4D6B5CFD
:103BF000C568B5FBF3F5056130BD29B12E4A5269A0
:103C000002432D4B5A6104E02B4A526982432A4BEE
:103C10005A61704729B1284A92690243264B9A613A
:103C200004E0254A92698243234B9A61704729B187
:103C3000214AD2690243204BDA6104E01E4AD2696C
:103C400082431D4BDA61704729B11B4AD268024397
:103C5000194BDA6004E0184AD2688243164BDA60E6
:103C6000704729B1144A12690243134B1A6104E0E8
:103C7000114A12698243104B1A6170471249403948
:103C8000086070470F49C86470470B49C871704796
:103C90000948406A40F08070074948627047014611
:103CA0000020054A92680A400AB1012000E0002085
:103CB0007047014988727047001002400000FFF809
:103CC000FFFFF6FE000042428004424200127A00EA
:103CD00000093D00560000206600002010B5044693
:103CE000FB48844209D101218803FFF7ADFF002181
:103CF0004FF48040FFF7A8FF32E0F648844209D134
:103D000001214804FFF7ADFF00214FF40030FFF719
:103D1000A8FF25E0F048844209D101218804FFF77B
:103D2000A0FF00214FF48020FFF79BFF18E0EB4835
:103D3000844209D10121C804FFF793FF00214FF409
:103D40000020FFF78EFF0BE0E548844208D10121F7
:103D50000805FFF786FF00214FF48010FFF781FF71
:103D600010BD2DE9F04786B005460E460024A24658
:103D700000BFA1460027B08900B100BF2F462C8AA2
:103D80004CF6FF700440F08804432C82AC894EF658
:103D9000F3100440B0883189084371890843044313
:103DA000AC81AC8A4FF6FF400440B0890443AC823A
:103DB00001A8FFF7C2FEC648874202D1DDF810A075
:103DC00001E0DDF80CA0A88900F4004040B10AEB46
:103DD000CA0000EB0A1031684900B0FBF1F807E0B7
:103DE0000AEBCA0000EB0A1031688900B0FBF1F859
:103DF0006420B8FBF0F004012009642101FB108964
:103E0000A88900F4004040B1322000EBC900B0FBAB
:103E1000F1F000F00700044308E0322000EB091045
:103E20006421B0FBF1F000F00F0004432C8106B0D8
:103E3000BDE8F0874FF41651016000218180C180F8
:103E400001810C21418100218181704710B502461A
:103E50000020108A4FF2FF0318400B884C88234340
:103E60008C882343CC8823431843108210BD002143
:103E7000018041808180C180704721B1828942F4F4
:103E80000052828104E082894DF6FF731A408281DC
:103E90007047F0B50346002400260025002040F6B8
:103EA0006A17B94200D100BF1846C1F3421401F0AD
:103EB0001F06012707FA06F5012C01D10C3004E09A
:103EC000022C01D1103000E014301AB107682F43E2
:103ED000076002E00768AF430760F0BD1AB1838A4C
:103EE0000B43838202E0838A8B4383827047028A7A
:103EF0004FF6F0731A400282028A0A430282704728
:103F000082894FF2FF731A40828182890A4382813B
:103F1000704721B1828942F00202828104E08289E5
:103F20004FF6FD731A4082817047028A4FF6DF73A5
:103F30001A400282028A0A430282704721B1028A31
:103F400042F48042028204E0028A4BF6FF731A4078
:103F500002827047C1F30802828070470146888858
:103F6000C0F308007047818941F0010181817047E9
:103F7000028BD2B20283028B42EA01220283704793
:103F8000028B02F47F420283028B0A430283704752
:103F900021B1828A42F02002828204E0828A4FF6B6
:103FA000DF731A408282704721B1828A42F0100288
:103FB000828204E0828A4FF6EF731A408282704751
:103FC00021B1828A42F00802828204E0828A4FF69E
:103FD000F7731A408282704721B1828942F400420D
:103FE000828103E08289C2F30E028281704721B18F
:103FF000828A42F40062828204E0828A4FF2FF7376
:104000001A4082827047828A4FF6FB731A4082827E
:10401000828A0A438282704721B1828A42F0020278
:10402000828204E0828A4FF6FD731A4082827047D2
:1040300002460020B1F5007F00D100BF13880B407D
:104040000BB1012000E00020704701F40072B2F5CE
:10405000007F00D100BFCA430280704770B502469E
:10406000002400230025002040F66A16B14200D14A
:1040700000BFC1F3421501F01F03012606FA03F346
:10408000012D02D19689334006E0022D02D1168A15
:10409000334001E0968A33400C12012606FA04F4FC
:1040A0001688344013B10CB1012000E0002070BD2F
:1040B00010B50022002340F66A14A14200D100BFCF
:1040C0000A1201249440A3B2DC43048010BD000016
:1040D000003801400044004000480040004C0040CF
:1040E0000050004010B50446FA48844208D101212E
:1040F0004015FFF7A9FD00216015FFF7A5FD17E0AA
:10410000F548844208D101210015FFF79DFD0021EB
:104110002015FFF799FD0BE0F048844208D10121FA
:10412000C803FFF791FD00214FF40040FFF78CFD1D
:1041300010BD30B50246002000235068E84C2040F6
:104140000D790C6844EA0524204350609068E54CE2
:104150002040D1E902542C434D7944EA45042043E0
:104160009060D06A20F470000C7C641EE4B223439B
:1041700040EA0350D06230BD0021016001714171FD
:104180008160C16001210174704721B1826842F0F1
:104190000102826003E0826822F0010282607047BF
:1041A00021B1826842F48072826003E0826822F466
:1041B00080728260704710B50023CBB21AB1446898
:1041C0001C43446002E044689C43446010BD816825
:1041D00041F0080181607047014600208A6802F0C2
:1041E00008020AB1012000E000207047816841F018
:1041F000040181607047014600208A6802F00402D1
:104200000AB1012000E00020704721B1826842F429
:10421000A002826003E0826822F4A00282607047FC
:10422000014600208A6802F480020AB1012000E001
:104230000020704710B50A4600210023416821F490
:104240006041531E41EA4331416010BD21B14268D3
:1042500042F40062426003E0426822F4006242607D
:104260007047F0B504460D4600200021092D11DDF0
:10427000E068A5F10A0606EB4607072606FA07F1ED
:104280008843A5F10A0606EB460603FA06F1084341
:10429000E0600CE0206905EB4507072606FA07F108
:1042A000884305EB450603FA06F108432061072A17
:1042B0000FDA606B561E06EB86071F2606FA07F11B
:1042C0008843561E06EB860605FA06F1084360632E
:1042D00022E00D2A0FDA206BD61F06EB86071F2679
:1042E00006FA07F18843D61F06EB860605FA06F1A3
:1042F0000843206310E0E06AA2F10D0606EB860792
:104300001F2606FA07F18843A2F10D0606EB860682
:1043100005FA06F10843E062F0BD21B1826842F47B
:104320008012826003E0826822F48012826070470B
:104330000146C86C80B2704766484C3000687047D0
:1043400021B1426842F48062426003E0426822F494
:1043500080624260704721B1426842F480524260FC
:1043600003E0426822F48052426070470A4600210E
:10437000816821F4E04111438160704721B1826876
:1043800042F40042826003E0826822F400428260CC
:10439000704721B1826842F40212826003E08268B1
:1043A00022F4021282607047014600208A6802F4FB
:1043B00000120AB1012000E000207047F0B5044669
:1043C0001546002000220026092911DDE068A1F130
:1043D0000A0707EB470C072707FA0CF29043A1F1F5
:1043E0000A0707EB470703FA07F21043E0600CE007
:1043F000206901EB410C072707FA0CF2904301EB0F
:10440000410703FA07F210432061A06BC0F3015685
:10441000EF1C06F1010CA7EB0C0707EB870C1F271D
:1044200007FA0CF29043EF1C06F1010CA7EB0C0706
:1044300007EB870701FA07F21043A063F0BD10B540
:104440000A4600210023816B21F44011531E41EAEA
:104450000351816310BD08B5002300930090009BB9
:104460000B440093009B1A6008BD08B5024600206B
:104470000090009201F12800009B184400900098E1
:10448000006880B208BD0A4600214168164B1940F9
:104490001143416070474162826270470A460021C1
:1044A000416821F01F0111434160704740B1094943
:1044B0000831096841F40001064A0832116007E03A
:1044C00004490831096821F40001024A08321160E8
:1044D000704700000024014000280140003C0140DA
:1044E000FFFEF0FFFDF7F1FFFFFD3FFF024600205A
:1044F00013680B400BB1012000E000207047CA4355
:104500000260704770B502460020002300240B12A1
:104510005568CEB205EA060415681D4015B10CB108
:10452000012000E0002070BD00220A12D343036086
:104530007047000010B50120FFF7A0FB0020FFF737
:104540009DFB10BD2A49086070472949091F086072
:104550007047274984310860704701460020254A8A
:1045600010884FF67F4210400843224A108070475F
:10457000014600201F4A10884FF680721040084301
:104580001C4A1080704708B500220092194A2C3A44
:104590000092009A02440092009A116008BD08B58A
:1045A00001460020009013482C38009000980844E1
:1045B00000900098008808BD0D489C300068C0B28B
:1045C00070470C480830008840F001000949083164
:1045D000088070470648A0300068C0B270470548A0
:1045E0000830008840F00200024908310880704716
:1045F00004860D422C6C004010B501210807FFF71E
:1046000030FB00214FF08050FFF72BFB10BD2A49F3
:104610000862704728490861704701460020274A10
:10462000106820F0E0000843106070472249A03174
:104630000860704710B502460020204B186820F033
:104640000300104318601E4B1B6843F004031C4C0E
:104650002360012901D130BF00E020BF184B1B6847
:1046600023F00403164C236010BD1448006840F08A
:104670000400124908600846006840F00200086023
:104680000F48006840F004000D49086000BF00BFFB
:1046900030BF704701460020084A52680A400AB1FC
:1046A000012000E0002070470449096841EA8001C8
:1046B000024A11607047000000000E420070004086
:1046C00010ED00E030B5014601F01F04C1F34513C1
:1046D000CA0AE50205EB43151544A8B230BD2DE921
:1046E000F04706460F4690469A46002445464FEA54
:1046F0004800C0F103094AE07A1991B2321990B228
:10470000524600F028FF7A1991B2321B90B25246FD
:1047100000F021FF7A1B91B2321990B2524600F09C
:104720001AFF7A1B91B2321B90B2524600F013FF6F
:104730003A1991B2721990B2524600F00CFF3A1930
:1047400091B2721B90B2524600F005FF3A1B91B233
:10475000721990B2524600F0FEFE3A1B91B2721BE3
:1047600090B2524600F0F7FEB9F1000F05DA0420CE
:1047700000FB049000F1060907E0601B042101FB27
:10478000009000F10A09681E85B2601C84B2AC4238
:10479000B2DBAC4237D17A1991B2321990B252469B
:1047A00000F0D9FE7A1991B2321990B2524600F057
:1047B000D2FE7A1B91B2321990B2524600F0CBFE73
:1047C0007A1B91B2321B90B2524600F0C4FE3A19E5
:1047D00091B2721990B2524600F0BDFE3A1991B2F0
:1047E000721B90B2524600F0B6FE3A1B91B272199B
:1047F00090B2524600F0AFFE3A1B91B2721B90B2DB
:10480000524600F0A8FEBDE8F0872DE9FF4F83B0C7
:10481000804689464946404600F093FE0598A0EB45
:1048200008050698A0EB0906002D02DB0120029086
:1048300003E04FF0FF3002906D42002E02DB0120BA
:10484000019003E04FF0FF30019076424FEA450AB5
:104850004FEA460BB54219DDABEB0504002712E029
:1048600049464046109A00F076FE002C05DBA4EB8A
:104870000A04019848441FFA80F95C4402984044B5
:104880001FFA80F87F1CAF42EADD18E0AAEB0604AD
:10489000002712E049464046109A00F05CFE002CCA
:1048A00005DBA4EB0B04029840441FFA80F8544443
:1048B000019848441FFA80F97F1CB742EADD07B02F
:1048C000BDE8F08F2DE9F84305460C4616461F4615
:1048D000DDF820804EF67D700090A81982B2234644
:1048E00021462846FFF791FF42F6651004F1010CBE
:1048F000BC441FFA8CF305EB060CACF1010C1FFA5B
:104900008CF204F1010C1FFA8CF105EB060CACF1F2
:10491000010C00901FFA8CF0FFF777FF42F665104C
:104920000090E01983B2A81982B2E01981B228463A
:10493000FFF76BFF4EF67D700090E01983B22A46B8
:1049400021462846FFF761FF04F1010CBC44ACF19D
:10495000020C1FFA8CF305F1010CB444ACF1020C0B
:104960001FFA8CF204F1010C1FFA8CF105F1010C15
:104970001FFA8CF0CDF80080FFF747FFBDE8F88301
:104980002DE9F84305460C4616461F46DDF8208003
:10499000B8F1000F39D14EF67D700090A81982B29F
:1049A000234621462846FFF730FF42F6651004F102
:1049B000010CBC441FFA8CF305EB060CACF1010CA6
:1049C0001FFA8CF204F1010C1FFA8CF105EB060CB6
:1049D000ACF1010C00901FFA8CF0FFF716FF42F6C5
:1049E00065100090E01983B2A81982B2E01981B273
:1049F0002846FFF70AFF4EF67D700090E01983B25B
:104A00002A4621462846FFF700FFB8F1010F39D1A9
:104A100042F665100090A81982B223462146284626
:104A2000FFF7F3FE4EF67D7004F1010CBC441FFA53
:104A30008CF305EB060CACF1010C1FFA8CF204F1BF
:104A4000010C1FFA8CF105EB060CACF1010C009087
:104A50001FFA8CF0FFF7D9FE4EF67D700090E0193A
:104A600083B2A81982B2E01981B22846FFF7CDFEC1
:104A700042F665100090E01983B22A462146284686
:104A8000FFF7C3FEB8F1020F39D14FF6FF70009067
:104A9000A81982B2234621462846FFF7B6FE4FF6F4
:104AA000FF7004F1010CBC441FFA8CF305EB060CFB
:104AB000ACF1010C1FFA8CF204F1010C1FFA8CF11D
:104AC00005EB060CACF1010C00901FFA8CF0FFF71F
:104AD0009CFE4FF6FF700090E01983B2A81982B2D5
:104AE000E01981B22846FFF790FE4FF6FF70009064
:104AF000E01983B22A4621462846FFF786FEBDE824
:104B0000F883F8B504460D4616461F4644F20820C1
:104B10002B463246294600902046FFF776FE48F2A3
:104B200010406A1C93B291B2621C009090B232465F
:104B3000FFF76BFE44F208203B46224629460090D0
:104B40002046FFF762FE48F21040631C9AB26B1CCD
:104B500099B2631C009098B23B46FFF756FE4FF6A1
:104B6000FF703B463246394600902046FFF74DFE27
:104B70004FF6FF703B463246294600903046FFF71D
:104B800044FEF8BDF8B506460F4614461D464FF6DE
:104B9000FF703B462246394600903046FFF735FE0F
:104BA0004FF6FF702B463246394600903046FFF7ED
:104BB0002CFE48F210406A1E93B291B2721C009013
:104BC00090B22246FFF721FE44F208202B462246EF
:104BD000294600903046FFF718FE48F21040631E49
:104BE0009AB27B1C99B2631E009098B22B46FFF7D5
:104BF0000CFE44F208202B462246394600902046FF
:104C0000FFF703FEF8BD2DE9F04707468846154635
:104C10009946DDF820A0202D03DDA5F12000C5B2C6
:104C200000E00025002422E000261CE004EB051033
:104C3000F849085C80213141084040B108EB04028A
:104C400091B2BA1990B24A4600F085FC09E0D1450C
:104C500007D008EB040291B2BA1990B2524600F0A4
:104C60007AFC701CC6B2082EE0DB601CC4B2102CAB
:104C7000DADB07F1080087B2BDE8F0872DE9F84FCD
:104C80000746884693469A46DDF828900097B3E099
:104C900099F8000080283DDA99F800600D2E05D1C2
:104CA000009F08F110001FFA80F830E0202E03DD8D
:104CB000A6F1200086B200E00026002422E00025B4
:104CC0001CE004EB0610D349085C80212941084010
:104CD00040B108EB040291B27A1990B25A4600F042
:104CE0003AFC09E0D34507D008EB040291B27A19E7
:104CF00090B2524600F02FFC681CC5B2082DE0DBD4
:104D0000601CC4B2102CDADB07F1080087B209F18D
:104D1000010971E0002668E006EB0610BE4911F8B3
:104D2000100099F8001088425DD106EB0610BA49D0
:104D300001EB4000407899F80110884253D10024DB
:104D40004FE0002520E006EB0610B34901EB4000E0
:104D5000801C10F8141080202841014041B108EB5C
:104D6000040291B27A1990B25A4600F0F4FB09E0BD
:104D7000D34507D008EB040291B27A1990B252469B
:104D800000F0E9FB681CC5B2082DDCDB002524E03F
:104D900006EB0610A04901EB4000801C012101EB4D
:104DA0004401405C80212941084048B108EB0402DD
:104DB00091B27A19083290B25A4600F0CCFB0AE060
:104DC000D34508D008EB040291B27A19083290B2A8
:104DD000524600F0C0FB681CC5B2082DD8DB601C31
:104DE000C4B2102CADDB701C86B2322E94DB09F1FC
:104DF000020907F1100087B299F8000000287FF43B
:104E000047AFBDE8F88F2DE9F05F06468846934628
:104E10009A46DDF82890E2E099F80000802835DA1B
:104E200099F80070202F03DDA7F1200087B200E081
:104E30000027002522E000241CE005EB071075493F
:104E4000095C80202041014041B108EB050291B28C
:104E5000321990B25A4600F07EFB09E0D34507D0E4
:104E600008EB050291B2321990B2524600F073FB82
:104E7000601CC4B2082CE0DB681CC5B2102DDADB64
:104E800009F1010906F1080086B2A8E000279EE0BA
:104E900007EB870000EB4710604911F8100099F804
:104EA000001088427CD107EB870000EB47105B497C
:104EB00001EB4000407899F801108842F2D10025BA
:104EC00080E0002423E007EB870000EB4710534904
:104ED00001EB4000801C05EB4501405C8021214135
:104EE000084040B108EB050291B2321990B25A461F
:104EF00000F031FB09E0D34507D008EB050291B281
:104F0000321990B2524600F026FB601CC4B2082C45
:104F1000D9DB002426E007EB870000EB47103F4970
:104F200001EB4000801C05EB4501491C405C8021E1
:104F30002141084048B108EB050291B2321908320C
:104F400090B25A4600F007FB0AE0D34508D008EBC0
:104F5000050291B23219083290B2524600F0FBFAC3
:104F6000601CC4B2082CD6DB002427E007EB8700C6
:104F700000EB4710294901EB4000801C05EB45017F
:104F8000891C405C80212141084050B108EB05029A
:104F900091B23219103290B25A4600F0DCFA0BE0AE
:104FA00013E0D34508D008EB050291B23219103254
:104FB00090B2524600F0CFFA601CC4B2082CD5DB88
:104FC000681CC5B2182DFFF67CAF781C87B2142F71
:104FD000FFF65EAF09F1020906F1180086B299F8F2
:104FE000000000287FF418AFBDE8F09F2DE9F05FC6
:104FF0000746884692469946002539E0002433E06A
:1050000007490A9801EBC01000EB850010F804B0C6
:10501000002625E046800008B88D00083A94000874
:10502000378600088020304100EA0B0050B108EBC1
:10503000050291B207EBC402324490B2524600F02E
:105040008AFA0BE0CA4509D008EB050291B207EBDA
:10505000C402324490B24A4600F07DFA701CC6B2D7
:10506000082EDFDB601CC4B2042CC9DB681CC5B28F
:10507000202DC3DBBDE8F09F10B50246012000E003
:1050800050430B1EA1F10104E1B2F9D110BD2DE98D
:10509000F84F06468A4690461D46DDF82C904FF0A4
:1050A000000B002431E0281B401EC1B20A20FFF78C
:1050B000E3FFB8FBF0F00A21B0FBF1F201FB1207AD
:1050C000BBF1000F11D1681EA0420EDD5FB90821AF
:1050D00001FB046188B2CDF80090202251460A9B62
:1050E000FFF791FD0FE04FF0010B07F13001CAB25D
:1050F000082101FB046188B2CDF8009051460A9B5B
:10510000FFF781FD00BF601CC4B2AC42CBDBBDE841
:10511000F88F2DE9FC5F06468A4617461C46DDF8E7
:105120003480002001901F49384602F049FE00906B
:1051300002F012FE1FFA80FB00252EE0601B401ECD
:10514000C1B20A20FFF798FFBBFBF0F00A21B0FBC9
:10515000F1F201FB1209A01EA8420FD1A11E0822E4
:1051600002FB016188B2CDF800802E2251460C9BD3
:10517000FFF749FD681CC5B2601CC4B209F13001DB
:10518000CAB2082101FB056188B2CDF80080514602
:105190000C9BFFF738FD681CC5B2A542CEDBBDE80D
:1051A000FC9F00000000C84208B501210820FEF75E
:1051B00031FD40F60240ADF8000003208DF80200FA
:1051C00010208DF803006946F748FEF767FA0121C1
:1051D0000420FEF71FFDF020ADF8000003208DF83D
:1051E000020010208DF803006946F048FEF756FAD9
:1051F00008BD0021082118E000F080022AB14FF418
:105200008062E94B10331A6004E04FF48062E64B91
:1052100014331A604FF40062E34B14331A601B1FFF
:105220001A604206100E4A1ED1B20029E4DC704713
:1052300010B504462020DD49143108604020086084
:105240002046FFF7D6FF2020D8491031086010BD56
:1052500010B504462020D549143108604020091FAC
:1052600008602046FFF7C5FF2020D04910310860B4
:1052700010BD10B504462020CC49143108604020F0
:10528000091F08602012FFF7B4FFE0B2FFF7B1FF7B
:105290002020C6491031086010BD30B505460C46C7
:1052A0002846FFF7C5FF2046FFF7D2FF30BD10B5F7
:1052B0008020BE49143108606420FEF730F8802059
:1052C000BA49103108603220FEF729F810BD10B538
:1052D000FFF76AFFFFF7EBFF1120FFF7A9FF782028
:1052E000FEF71DF8B120FFF7A3FF0120FFF7B0FF85
:1052F0002C20FFF7ADFF2D20FFF7AAFFB220FFF70C
:1053000097FF0120FFF7A4FF2C20FFF7A1FF2D201E
:10531000FFF79EFFB320FFF78BFF0120FFF798FFF9
:105320002C20FFF795FF2D20FFF792FF0120FFF7BC
:105330008FFF2C20FFF78CFF2D20FFF789FFB42073
:10534000FFF776FF0720FFF783FFC020FFF770FF0E
:10535000A220FFF77DFF0220FFF77AFF8420FFF7EE
:1053600077FFC120FFF764FFC520FFF771FFC22060
:10537000FFF75EFF0A20FFF76BFF0020FFF768FFD3
:10538000C320FFF755FF8A20FFF762FF2A20FFF7AF
:105390005FFFC420FFF74CFF8A20FFF759FFEE2084
:1053A000FFF756FFC520FFF743FF0E20FFF750FF22
:1053B0003620FFF73DFFC020FFF74AFFE020FFF750
:1053C00037FF0F20FFF744FF1A20FFF741FF0F20A0
:1053D000FFF73EFF1820FFF73BFF2F20FFF738FFB6
:1053E0002820FFF735FF2020FFF732FF2220FFF7AC
:1053F0002FFF1F20FFF72CFF1B20FFF729FF232083
:10540000FFF726FF3720FFF723FF0020FFF720FFDD
:105410000720FFF71DFF0220FFF71AFF1020FFF7FC
:1054200017FFE120FFF704FF0F20FFF711FF1B20FC
:10543000FFF70EFF0F20FFF70BFF1720FFF708FF06
:105440003320FFF705FF2C20FFF702FF2920FFF78D
:10545000FFFE2E20FFF7FCFE3020FFF7F9FE302084
:10546000FFF7F6FE3920FFF7F3FE3F20FFF7F0FECF
:105470000020FFF7EDFE0720FFF7EAFE0320FFF70D
:10548000E7FE1020FFF7E4FE2A20FFF7D1FE002000
:10549000FFF7DEFE0020FFF7DBFE0020FFF7D8FE5F
:1054A0007F20FFF7D5FE2B20FFF7C2FE0020FFF77D
:1054B000CFFE0020FFF7CCFE0020FFF7C9FE9F20A3
:1054C000FFF7C6FEF020FFF7B3FE0120FFF7C0FE96
:1054D000F620FFF7ADFE0020FFF7BAFE3A20FFF7F7
:1054E000A7FE0520FFF7B4FE2920FFF7A1FE10BD9F
:1054F000F0B505460C4616461F462A20FFF798FED3
:105500000020FFF7A5FEE8B2FFF7A2FE0020FFF79C
:105510009FFEB11CC8B2FFF79BFE2B20FFF788FE51
:105520000020FFF795FEE0B2FFF792FE0020FFF7A4
:105530008FFE791CC8B2FFF78BFE2C20FFF778FE98
:10554000F0BD30B504460D462B462246294620467E
:10555000FFF7CEFF30BD70B504460D461646681CF9
:1055600083B2601C82B229462046FFF7C1FF304655
:10557000FFF77FFE70BD60B505460E4631462846F2
:10558000FFF7DFFFE0B2FFF763FE204660BD70B5B6
:1055900006469F237F2200210846FFF7A9FF2C2003
:1055A000FFF746FE00240CE0000C0140000801401B
:1055B000002503E03046FFF75CFE6D1CA02DF9D3FB
:1055C000641C802CF4D370BD704770B5064600F0A3
:1055D000D5FA056806F10B0020F00704B4429CBF21
:1055E000002070BD2B466A68BAB11068A04210D383
:1055F00004F1080188423CBF5068586007D35168E5
:10560000101941601168091B016058601460101D79
:1056100070BD13465268002AE7D12146284600F0A3
:10562000B9FA0028DED170BD70B50446051F00F040
:10563000A5FA0068002C14BF446870BD002C18BF88
:10564000AC423CBF20466468F8D301680A18AA42FD
:1056500018BF456003D12A680546114401602868D7
:105660004119A1421CBF6C6070BD6168696021680E
:105670000844286070BD00007CB51D4616460C002D
:10568000009001D02044401E074B7B442A466946C7
:105690000190304600F073FB05461CB100206946BE
:1056A00000F080FB28467CBD210700000FB40449B0
:1056B00010B503AA029800F099FB10BC5DF814FB2A
:1056C000500000200FB41CB5084B06AA7B44694665
:1056D0000090059800F053FB04460020694600F056
:1056E00061FB20461CBC5DF814FB0000D5060000E1
:1056F00070B50C460546012A05D02878800600D5ED
:10570000EA69002302E0012305E05B1C934202D218
:10571000E05C0028F9D1A869E618C01AA861286AD7
:1057200018442862284600F07FFA04E0D5E90121F8
:1057300014F8010B9047B442F8D3284600F08AFAD7
:1057400070BD00002DE9F04106460024106875295F
:10575000314616A510D000F08EFA002802DA404239
:1057600013A507E031688A0701D512A502E04907B1
:1057700004D511A5012401E000F086FA00210A22D7
:1057800006F1240709E0B0FBF2FCB0FBF2F302FBE8
:105790001C00303078541846491C0028F3D12346A9
:1057A0002A463046BDE8F04100F077BA000000001C
:1057B0002D0000002B000000200000002DE9F05F0C
:1057C000894604464FF0000ADFF874B1FB44C0F884
:1057D00020A02046E1688847002874D0252806D0FC
:1057E000D4E901219047206A401C2062F1E700269D
:1057F0005F462046E16888472028054607DB312DB3
:1058000005D2781910F8200C08B10643F1E7B0076B
:1058100001D526F00406C4F81CA00027C4F818A07F
:105820002A2D09D0284601F0DBFC38B304EB8708A9
:10583000303DC8F8185019E059F8041B204604EB15
:1058400087029161E1688847012F054618D1E06918
:10585000002820DA26F020061DE0D8F8180000EB1A
:10586000800005EB40003038C8F818002046E16899
:105870008847054601F0B4FC0028EED1012F0AD07C
:105880002E2D08D12046E16888477F1C0546022F4F
:1058900046F02006C4DBA069002803DA404246F047
:1058A0000106A061F00701D026F010066C2D0BD088
:1058B000682D09D04C2D39D06A2D35D0742D35D0B6
:1058C0007A2D33D016E038E0E1682F46204688472D
:1058D000B842054609D16C2F26D04FF48060E168AC
:1058E000064320468847054604E06C2F1AD04FF443
:1058F000807006430DB3A5F14100192802D8203568
:1059000046F400664A462946204626604E46FAF787
:1059100049FC80B101280BD0F61D26F0070000F1EC
:10592000080956E74020E4E78020D8E70020D6E7C2
:1059300006F104094DE7284652E7206ABDE8F09FCA
:10594000E841000070B5064600F01CF90468054601
:1059500030460A22002100F079FB2C6070BD401E09
:10596000CAB210F8011F8A4202D00029F9D10020E2
:10597000704710B5431E13F8014F002CFBD105E012
:1059800011F8014B002C03F8014B03D0521EF7D243
:105990000021197010BD30B505460B462A4613F894
:1059A000014B12F8010B08B1A042F8D01CB100283D
:1059B00002D06D1CF1E7284630BD40EA01030246E3
:1059C00030B59B0710D14FF0013400E008C208C980
:1059D0001D1B9D4315EAC41FF8D013F0FF0102F808
:1059E000011B0DD01B0AF8E711F8013B002B02F850
:1059F000013B05D011F8013B002B02F8013BF3D12C
:105A000030BD10B5431C02E010F8011B71B18107D5
:105A1000FAD14FF0013202C88C1A8C4314EAC21139
:105A2000F9D0C01A0A0603D0C01E10BDC01A10BD9E
:105A30000A0401D0801E10BD0902FCD0401E10BD1A
:105A4000421E12F8013F002BFBD111F8013B002B45
:105A500002F8013BF9D17047032A40F2308010F080
:105A6000030C00F0158011F8013BBCF1020F6244F9
:105A700098BF11F801CB00F8013B38BF11F8013B8A
:105A8000A2F1040298BF00F801CB38BF00F8013B37
:105A900011F0030300F01283083AC0F0088051F8B7
:105AA000043B083A51F804CBA0E80810F5E7121DB2
:105AB0005CBF51F8043B40F8043BAFF30080D207D1
:105AC00024BF11F8013B11F801CB48BF11F8012B9D
:105AD00024BF00F8013B00F801CB48BF00F8012BC0
